S00B00007573622E73726563CF
S11300000C949A000C94B7000C94B7000C94B700AD
S11300100C94B7000C94B7000C94B7000C94B70080
S11300200C94B7000C94B7000C9412040C94420482
S11300300C94B7000C94B7000C94B7000C94B70060
S11300400C94B7000C94B7000C94B7000C94B70050
S11300500C94B7000C94B7000C94B7000C94B70040
S11300600C94B7000C94B7000C94B7000C94B70030
S11300700C94B7000C94B7000C94B7000C94B70020
S11300800C94B7000C94B7000C94B7000C94B70010
S11300900C94B7000C94B7000C94B7000C94B70000
S11300A00C94B7000C94B7000C94B700650291024D
S11300B091028102910291029102910291029102B4
S11300C09102910291029102910291029102910294
S11300D035029102910291029102910291029102E0
S11300E06A0291029102910291029102910291029B
S11300F0910255029102450291029102A0019102DE
S1130100ED0109022000010100803209040000020F
S1130110080650000705020220000007058102209E
S113012000001201000200000020FE130043000141
S11301300102030111241FBECFEFDAE0DEBFCDBF01
S113014011E0A0E0B1E0E4EBFAE002C005900D920A
S1130150AE34B107D9F723E0AEE4B1E001C01D929B
S1130160AB38B207E1F70E94FB000C9458050C94DD
S1130170000080E090E0089580E090E008951092FF
S11301804F0110924E0182E09DE090934F018093C5
S11301904E010895F89498B19F7B98B9E0914E016F
S11301A0F0914F013197F1F798E011C080FF04C03E
S11301B028B1206428B903C028B12F7B28B9E09165
S11301C04E01F0914F013197F1F7869591509111BD
S11301D0EDCF88B1806488B980914E0190914F0130
S11301E00197F1F7789408958AE00E94CA008DE09F
S11301F00E94CA000895CF93DF93CDB7DEB7D250E3
S11302000FB6F894DEBF0FBECDBF88B1806488B945
S113021087B1806C87B995E080E80FB6F894809335
S11302206100909361000FBE2FEF31EE84E0215006
S113023030408040E1F700C0000090E080E80FB655
S1130240F89480936100909361000FBE0E94BF00F8
S11302500E946A010E94F4000E94EB0318C088B156
S1130260806888B99FEFA1EEB4E09150A040B040FF
S1130270E1F700C0000088B18F7788B92FEF31EE25
S113028084E0215030408040E1F700C000000E942B
S11302900F04882321F30E94F400FE01319680E0CC
S11302A092E0DF019C011D9221503040E1F70E9451
S11302B087030E94B7038823D1F360E072E0CE0184
S11302C001960E94BF03682F70E0CE0101960E9440
S11302D07803EDCF85E593E5A2E4B3E580937D0350
S11302E090937E03A0937F03B093800308950F93AC
S11302F01F93AEE5B3E014964D915D916D917C91A1
S11303001797EDE7F3E04483558366837783109270
S11303105B0310925A031086118612861386148684
S113032081E080935D031F96EC918E2F90E08B32D9
S1130330910508F0F6C0FC01EA5AFF4F0C944905F8
S113034080E092E09093570380935603EEE5F3E048
S1130350868990E0982F88272789820F911D01971D
S113036090935103809350036189862F90E0A0E01D
S1130370B0E0782F662755274427828990E0A0E0D3
S1130380B0E0DC0199278827840F951FA61FB71FAB
S1130390238930E0322F2227820F931FA11DB11D24
S11303A02489820F911DA11DB11DBC01CD01052E13
S11303B059E0660F771F881F991F5A95D1F7502D62
S11303C060935203709353038093540390935503A3
S11303D080E591E00E94B900ABC010925D0381E01A
S11303E080935C031092570310925603EEE5F3E0FA
S11303F0868990E0982F88272789820F911D9093F2
S1130400510380935003818990E0A0E0B0E0382F3D
S1130410222711270027428950E060E070E0DA01CA
S113042099278827800F911FA21FB31F238930E0CB
S1130430322F2227820F931FA11DB11D2489820F01
S1130440911DA11DB11D072E79E0880F991FAA1FC8
S1130450BB1F7A95D1F7702D809352039093530369
S1130460A0935403B093550363C084E2E0E0F1E049
S1130470A0E5B1E001900D928A95E1F784E290E065
S1130480909357038093560353C088E0EAE3F1E066
S1130490A0E5B1E001900D928A95E1F788E090E043
S11304A0909357038093560343C08CE0E2E4F1E059
S11304B0A0E5B1E001900D928A95E1F78CE090E01F
S11304C0909357038093560333C0109257031092AE
S11304D056032EC08091360190913701A0913801C6
S11304E0B09139018093500190935101A09352012E
S11304F0B093530184E090E09093570380935603A4
S113050017C082E1E4E2F1E0A0E5B1E001900D92D0
S11305108A95E1F782E190E0909357038093560324
S113052007C0109257031092560381E08093890309
S11305301F910F9108950F931F93CF93DF93EB01B6
S113054000915A0310915B03AB01BC01C801825AAC
S11305509C4F0E944F05C00FD11FD0935B03C093E3
S11305605A036F9711F40E947701DF91CF911F9185
S11305700F9108950F931F93CF93DF93EB01009195
S11305805A0310915B03AB01BC01C801805B9E4F11
S11305900E944F05C00FD11FD0935B03C0935A0331
S11305A0C115D24079F510925B0310925A03609101
S11305B052037091530380E591E00E94BC00809146
S11305C0520390915303A0915403B09155039E5F3D
S11305D0AF4FBF4F8093520390935303A0935403A0
S11305E0B0935503809150039091510301979093D8
S11305F0510380935003892B29F410925C0382E009
S113060080935D03DF91CF911F910F910895CF9354
S1130610DF938091560390915703209158033091B2
S11306205903821B930B8032910580F5209150036E
S1130630309151032115310531F110925903109273
S113064058038091520390915303A0915403B091A5
S11306505503BC01CD017E5F8F4F9F4F60935203C2
S1130660709353038093540390935503215031099D
S1130670309351032093500380E591E00E94B90028
S1130680D0E0C0E205C0C82FD1E002C0D0E0C0E293
S1130690CC2351F080915803909159036C2F70E052
S11306A0805B9E4F0E949403DD2361F010925703F8
S11306B010925603109259031092580382E08093CB
S11306C05D030AC080915803909159038C0F911DCA
S11306D09093590380935803DF91CF9108956DE06F
S11306E070E08DE793E00E94940310925D030895F7
S11306F09C0190915C03911104C0C9010E949B026A
S11307000895913019F4C9010E94BA0208958091A4
S11307105D03813011F40E94070380915D038230F0
S113072011F40E946F030895FC0180918A038823C9
S1130730E1F0F89481E08093E9009091E80095FF5E
S1130740FCCF262F372F05C090819093F1009A019A
S11307503196A90141505109232BB1F78AE38093C3
S1130760E8007894862F841B08958FEF0895F894F9
S113077082E08093E9008091F20078940895FC016E
S113078080918A03882329F1F89482E08093E90018
S11307909091E80095FFFCCF8091F20090E06817FB
S11307A0790708F0BC019B0105C09091F10090838A
S11307B09A013196A90141505109232BB1F7809137
S11307C0F200811103C08BE68093E8007894862FB1
S11307D008958FEF0895F894E7EDF0E0808181604B
S11307E0808389B5826189BD09B400FEFDCFE8ED3F
S11307F0F0E080818069808380818F7D8083109286
S1130800E00080818E7F8083E2EEF0E080818C6066
S1130810808310928A03789480E090E00895809118
S11308208A0308951F920F920FB60F9211248F938B
S1130830EF93FF93E1EEF0E08081108283FF1AC012
S11308401092E90081E08093EB001092EC00EDEE51
S1130850F0E080818262808310928A038091EE00AE
S1130860882344F4EAEEF0E081E08083108288E09B
S11308708093F000FF91EF918F910F900FBE0F9036
S11308801F9018951F920F920FB60F9211242F9359
S11308903F934F935F936F937F938F939F93AF9304
S11308A0BF93EF93FF931092E9008091E80083FFD8
S11308B0DAC0E1EFF0E0608140812081808190E046
S11308C0982F8827DC01A22B9D0180818081508193
S11308D0808190E0982F8827852BE8EEF0E0508106
S11308E0527F5083463009F045C02115B1E03B07E3
S11308F029F4E2E2F1E05491BF010CC02115324029
S113090031F0EBEEF0E0808181628083B1C050E28F
S113091062E071E08F3F910519F010F08FEF90E0E5
S1130920851728F5582F23C08091E80080FFFCCF5D
S11309308091E80082FD9CC0452F513208F040E2CE
S113094080E090E007C0FB01E80FF91FE491E09319
S1130950F1000196242F30E082179307A4F3541B6F
S1130960640F711DE8EEF0E080818E7F8083511169
S1130970DBCF7EC04930B9F5611135C020938A03BD
S1130980E8EEF0E080818E7F808381E08093E9004F
S1130990EBEEF0E080818160808381E88093EC005D
S11309A082E38093ED008091EE00882314F010928E
S11309B08A0382E08093E900EBEEF0E080818160BD
S11309C0808380E88093EC0082E38093ED00809143
S11309D0EE00882314F010928A03EAEEF0E08EE130
S11309E08083108245C0453071F4E8EEF0E08081E8
S11309F08E7F80838091E80080FFFCCF822F806807
S1130A008093E30035C0483081F4603871F48091FC
S1130A10E80080FFFCCF80918A038093F100E8EE28
S1130A20F0E080818E7F808323C041110EC08091CD
S1130A30E80080FFFCCFE1EFF0E010821082E8EEE6
S1130A40F0E080818E7F808313C04E3F61F48091FB
S1130A50E80080FFFCCF1092F100E8EEF0E0808126
S1130A608E7F808305C0EBEEF0E08081816280831D
S1130A70FF91EF91BF91AF919F918F917F916F9172
S1130A805F914F913F912F910F900FBE0F901F9048
S1130A901895EE0FFF1F0590F491E02D0994FB01CA
S1130AA0DC0102C001900D9241505040D8F70895E6
S1070AB0F894FFCFE4
S1130AB4008002021F00000041546D656761203804
S1130AC4562D5553422053442D416461707465720C
S1130AD430303030700005000000000A00000000CF
S1130AE424000000000003000000000F237F000026
S1110AF402000000000800F2380002000200B8
S9030000FC
