S00B00007573622E73726563CF
S11300000C949A000C94B7000C94B7000C94B700AD
S11300100C94B7000C94B7000C94B7000C94B70080
S11300200C94B7000C94B7000C945B040C948F04EC
S11300300C94B7000C94B7000C94B7000C94B70060
S11300400C94B7000C94B7000C94B7000C94B70050
S11300500C94B7000C94B7000C94B7000C94B70040
S11300600C94B7000C94B7000C94B7000C94B70030
S11300700C94B7000C94B7000C94B7000C94B70020
S11300800C94B7000C94B7000C94B7000C94B70010
S11300900C94B7000C94B7000C94B7000C94B70000
S11300A00C94B7000C94B7000C94B7003702DC0131
S11300B0DC013E02DC01DC01DC01DC01DC01DC01F1
S11300C0DC01DC01DC01DC01DC01DC01DC01DC0144
S11300D05002DC01DC01DC01DC01DC01DC01DC01BF
S11300E06202DC01DC01DC01DC01DC01DC01DC019D
S11300F0DC017B02DC018D02DC01DC019F02DC01FE
S1130100EB01090220000101008032090400000211
S1130110080650000705020220000007058102209E
S113012000001201000200000020FE130043000141
S11301300102030111241FBECFEFDAE0DEBFCDBF01
S113014011E0A0E0B1E0ECE4FBE002C005900D9208
S1130150AE34B107D9F723E0AEE4B1E001C01D929B
S1130160AB38B207E1F70E942E010C94A4050C945D
S1130170000080E090E0089580E090E00895F89415
S11301804698E0914E01F0914F013197F1F780FDCF
S113019055C04698E0914E01F0914F013197F1F727
S11301A0869580FD59C04698E0914E01F0914F012B
S11301B03197F1F7869580FD4DC04698E0914E0148
S11301C0F0914F013197F1F7869580FD41C0469833
S11301D0E0914E01F0914F013197F1F7869580FD42
S11301E035C04698E0914E01F0914F013197F1F7F7
S11301F0869580FD29C04698E0914E01F0914F010B
S11302003197F1F7869580FD1DC04698E0914E0127
S1130210F0914F013197F1F7869591F0469A8091CC
S11302204E0190914F010197F1F7469A80914E014A
S113023090914F010197F1F778940895469AAACFC7
S11302404698EDCF469AE2CF469AD6CF469ACACF81
S1130250469ABECF469AB2CF469AA6CFCF93DF93A3
S1130260CDB7DEB7D2500FB6F894DEBF0FBECDBF08
S1130270469A87B1806C87B980E895E00FB6F89408
S113028080936100909361000FBE2FEF31EE94E0F4
S1130290215030409040E1F700C0000090E00FB6DC
S11302A0F89480936100909361000FBE10924F0107
S11302B010924E0182E09DE090934F0180934E0195
S11302C00E94A5018AE00E94BF008DE00E94BF0049
S11302D00E9430040E945804811115C0479AEFEF20
S11302E0F1EE24E0E150F0402040E1F700C00000CE
S11302F047983FEF81EE94E0315080409040E1F721
S113030000C00000E7CF8AE00E94BF008DE00E9499
S1130310BF008E010F5F1F4F80E092E0F8019C0147
S1130320119221503040E1F70E9466030E94FA03C3
S11303308823D1F360E072E0C8010E940204682FB0
S113034070E0C8010E94F102EFCF85E593E5A2E4D5
S1130350B3E580937D0390937E03A0937F03B093D2
S1130360800308950F931F93809162039091630318
S1130370A0916403B09165038093810390938203F9
S1130380A0938303B093840310925B0310925A03E7
S113039010928503109286031092870310928803AB
S11303A01092890381E080935D03E0916D038E2FA9
S11303B090E08B32910550F010925703109256033F
S11303C081E0809389031F910F910895FC01EA5AFB
S11303D0FF4F0C94950510925D0381E080935C03BC
S11303E010925703109256038091740390E0982F53
S11303F0882720917503820F911D90935103809358
S1130400500380916F0390E0A0E0B0E0382F2227E2
S1130410112700274091700350E060E070E0DA019A
S113042099278827800F911FA21FB31F2091720361
S1130430820F911DA11DB11D2091710330E0322F57
S11304402227820F931FA11DB11D19E0880F991F48
S1130450AA1FBB1F1A95D1F780935203909353039D
S1130460A0935403B09355031F910F9108951092D4
S11304705703109256031F910F91089582E1E4E20D
S1130480F1E0A0E5B1E001900D928A95E1F782E1F7
S113049090E090935703809356031F910F91089512
S11304A084E2E0E0F1E0A0E5B1E001900D928A95EC
S11304B0E1F784E290E090935703809356031F91F1
S11304C00F9108958091360190913701A0913801E0
S11304D0B09139018093500190935101A09352013E
S11304E0B093530184E090E09093570380935603B4
S11304F01F910F9108958CE0E2E4F1E0A0E5B1E0F2
S113050001900D928A95E1F78CE090E09093570367
S1130510809356031F910F91089588E0EAE3F1E078
S1130520A0E5B1E001900D928A95E1F788E090E0B2
S113053090935703809356031F910F91089580E081
S113054092E090935703809356038091740390E054
S1130550382F222790917503892F90E00197820FFD
S1130560931F909351038093500360916F03862FE0
S113057090E0A0E0B0E0782F6627552744278091CB
S1130580700390E0A0E0B0E0DC0199278827840F95
S1130590951FA61FB71F20917203820F911DA11DE5
S11305A0B11D2091710330E0322F2227820F931F57
S11305B0A11DB11DBC01CD0159E0660F771F881F35
S11305C0991F5A95D1F76093520370935303809304
S11305D054039093550380E591E01F910F910C947F
S11305E0B9000F931F93CF93DF939C01EB0190917C
S11305F05C03992339F09130F1F0DF91CF911F9191
S11306000F91089500915A0310915B03AB01B90156
S1130610C801825A9C4F0E949B05C00FD11FD093E2
S11306205B03C0935A036F9741F7DF91CF911F91FA
S11306300F910C94B20100915A0310915B03AB012A
S1130640B901C801805B9E4F0E949B05C00FD11F5A
S1130650C11582E0D80749F0D0935B03C0935A03D5
S1130660DF91CF911F910F91089510925B03109227
S11306705A03609152037091530380E591E00E9404
S1130680BC008091520390915303A0915403B09104
S113069055039E5FAF4FBF4F809352039093530314
S11306A0A0935403B0935503809150039091510348
S11306B001979093510380935003892B09F09DCFA8
S11306C010925C0382E080935D0397CF80915D0379
S11306D0813019F0823019F1089580915803909176
S11306E059032091560330915703281B390B2032AC
S11306F0310508F044C04091500350915103411515
S11307005105B1F421114DC01092570310925603B4
S1130710109259031092580382E080935D036DE0B8
S113072070E08DE793E00E94D80310925D03089572
S113073010925903109258038091520390915303DD
S1130740A0915403B0915503BC01CD017E5F8F4F3E
S11307509F4F609352037093530380935403909379
S1130760550341505109509351034093500380E580
S113077091E00E94B900809158039091590360E27E
S113078070E0805B9E4F0E94D80380915803909143
S113079059038096909359038093580380915D0385
S11307A099CFB9017727805B9E4F0E94D803ACCFC5
S11307B020918A03211102C08FEF0895F89421E05B
S11307C02093E9002091E80025FFFCCF6115710515
S11307D051F0FC019C01260F371F91919093F10079
S11307E0E217F307D1F78AE38093E800789481E075
S11307F0860F0895F89482E08093E9008091F200D6
S113080078940895FC0180918A03811102C08FEFCE
S11308100895F89482E08093E9008091E80085FFD0
S1130820FCCF2091F20030E062177307B8F0211575
S1130830310551F0AF01420F531F9091F1009083A5
S11308403196E417F507C9F78091F200811103C0CE
S11308508BE68093E8007894822F08959B01E7CF7C
S1130860F8948091D70081608093D70089B5826124
S113087089BD09B400FEFDCF8091D80080698093C2
S1130880D8008091D8008F7D8093D8001092E0002A
S11308908091D8008E7F8093D8008091E2008C6094
S11308A08093E20010928A03789480E090E00895A7
S11308B080918A0308951F920F920FB60F9211240C
S11308C08F939F938091E1001092E10083FF12C007
S11308D01092E90091E09093EB001092EC0080916B
S11308E0ED0082628093ED0010928A038091EE0005
S11308F087FD07C09F918F910F900FBE0F901F909F
S113090018959093EA001092EA0088E08093F00032
S11309109F918F910F900FBE0F901F9018951F926B
S11309200F920FB60F9211242F933F934F935F931F
S11309306F937F938F939F93AF93BF93EF93FF93A3
S11309401092E9008091E80083FF36C05091F100D5
S11309504091F1008091F1002091F10090E0BC0100
S1130960722B9B018091F1008091F1008091F10044
S11309706091F1009091E800927F9093E8004630F6
S113098089F1493009F479C0453009F468C0483028
S113099081F04111BBC08091E80080FFFCCF109230
S11309A0F1001092F1008091E8008E7F8093E800BE
S11309B008C0503809F496C08091EB00816280939E
S11309C0EB00FF91EF91BF91AF919F918F917F9138
S11309D06F915F914F913F912F910F900FBE0F90A8
S11309E01F901895211571E0370709F489C0211566
S11309F0324011F7E0E242E051E090E0962B8F3F65
S1130A00910519F010F08FEF90E0982FE81708F493
S1130A109E2F9923B1F28091E80080FFFCCF809152
S1130A20E80082FDCECF692F913208F060E2FA012E
S1130A30A62FB0E09A012A0F3B1F84918093F10006
S1130A4031962E173F07C9F7961B4A0F5B1F8091FB
S1130A50E8008E7F8093E8009111DDCFB2CF8091C2
S1130A60E8008E7F8093E8008091E80080FFFCCF4F
S1130A70822F80688093E300A4CF51119DCF2093EF
S1130A808A038091E8008E7F8093E80081E0809360
S1130A90E9008091EB0081608093EB0081E8809312
S1130AA0EC0082E38093ED008091EE0087FF1092CA
S1130AB08A0382E08093E9008091EB008160809357
S1130AC0EB0080E88093EC0082E38093ED0080915A
S1130AD0EE0087FF10928A038EE18093EA00109261
S1130AE0EA006FCF8091E80080FFFCCF80918A03F9
S1130AF08093F1008091E8008E7F8093E80061CFBD
S1130B00E2E2F1E0E49142E251E077CF4E3F09F0B6
S1130B1053CF8091E80080FFFCCF1092F1008091C8
S1130B20E8008E7F8093E8004CCFEE0FFF1F059006
S1130B30F491E02D0994FB01DC0102C001900D92B7
S10F0B4041505040D8F70895F894FFCFBE
S1130B4C008002021F00000041546D65676120386B
S1130B5C562D5553422053442D4164617074657273
S1130B6C30303030700005000000000A0000000036
S1130B7C24000000000003000000000F237F00008D
S1110B8C02000000000800F23800020002001F
S9030000FC
