S00B00007573622E73726563CF
S11300000C949A000C94B7000C94B7000C94B700AD
S11300100C94B7000C94B7000C94B7000C94B70080
S11300200C94B7000C94B7000C9412050C9446057C
S11300300C94B7000C94B7000C94B7000C94B70060
S11300400C94B7000C94B7000C94B7000C94B70050
S11300500C94B7000C94B7000C94B7000C94B70040
S11300600C94B7000C94B7000C94B7000C94B70030
S11300700C94B7000C94B7000C94B7000C94B70020
S11300800C94B7000C94B7000C94B7000C94B70010
S11300900C94B7000C94B7000C94B7000C94B70000
S11300A00C94B7000C94B7000C94B700F0029502BE
S11300B09502F70295029502950295029502950222
S11300C09502950295029502950295029502950274
S11300D009039502950295029502950295029502EF
S11300E01B039502950295029502950295029502CD
S11300F0950234039502460395029502580395022E
S1130100A402090220000101008032090400000257
S1130110080650000705020220000007058102209E
S113012000001201000200000020FE130043000141
S11301300102030111241FBECFEFDAE0DEBFCDBF01
S113014011E0A0E0B1E0EAEBFCE002C005900D9202
S1130150AE34B107D9F723E0AEE4B1E001C01D929B
S1130160AB38B207E1F70E94F1010C945B060C94E2
S1130170000085B95998599A08953FEF34B9529AB5
S11301805A98519A599A539A5B9A2FEF89EF90E0B3
S1130190215080409040E1F700C000005A9AEFE3FC
S11301A0FCE93197F1F700C000008EEF85B95B9848
S11301B05998599A5B9A5A9A85B95B985998599A59
S11301C05B9A5A9A9FEE95B95B985998599A5B9A9B
S11301D05A9A93EB95B95B985998599A5B9A5A9A9B
S11301E093E095B95998599A96EB95B95B985998B3
S11301F0599A5B9A5A9A91E095B95998599A93EAFF
S113020095B95B985998599A5B9A5A9A21E125B9FC
S11302105998599A91E295B95B985998599A5B9A69
S11302205A9A46E345B95B985998599A5B9A5A9AEF
S113023040ED45B95998599A4AE345B95B9859989C
S1130240599A5B9A5A9A45E045B95998599A44EB98
S113025045B95B985998599A5B9A5A9A95B959989D
S1130260599A90EF95B95B985998599A5B9A5A9A0A
S113027091E395B95998599A9CE495B95998599A22
S113028054E255B95998599A98E595B95998599A93
S113029098EA95B95998599A96E295B95998599AFC
S11302A098E295B95998599A15B85998599A9CE26F
S11302B095B95998599A4CE045B95998599A45B9FC
S11302C05998599A45E145B95998599A45B959984F
S11302D0599A4FE045B95998599A61EF65B95B98B5
S11302E05998599A5B9A5A9A6EE065B95998599AED
S11302F06DE265B95998599A55B95998599A5EE376
S113030055B95998599A59E955B95998599A52E190
S113031055B95998599A53E155B95998599A15B8F4
S11303205998599A6AE065B95998599A6DE065B92E
S11303305998599A65B95998599A64E165B959987F
S1130340599A55B95998599A45B95998599A85B9A4
S11303505B985998599A5B9A5A9A35B95B98599807
S1130360599A5B9A5A9A25B95B985998599A5B9A03
S11303705A9AEFE7FBEB3197F1F700C0000089E2EE
S113038085B95B985998599A5B9A5A9A95B95B982A
S11303905998599A5B9A5A9A8FE39CE90197F1F715
S11303A000C0000080E090EA15B85998599A019766
S11303B0D9F7089580E090E008950F931F93CF93A9
S11303C0DF93EC018C011E5F89910E94B900C01774
S11303D0D107D1F780E090E0DF91CF911F910F9189
S11303E00895CF93DF93CDB7DEB7D2500FB6F8940C
S11303F0DEBF0FBECDBF469A87B1806C87B980E857
S113040095E00FB6F89480936100909361000FBE5D
S11304102FEF31EE94E0215030409040E1F700C0DE
S1130420000090E00FB6F89480936100909361000F
S11304300FBE0E94BD0010924F0110924E0182E047
S11304409DE090934F0180934E010E945E020E94B2
S1130450E7040E940F05811115C0479AEFEFF1EEF2
S113046024E0E150F0402040E1F700C0000047984C
S11304703FEF81EE94E0315080409040E1F700C0BE
S11304800000E7CF8E010F5F1F4F80E092E0F8017C
S11304909C01119221503040E1F70E941D040E94FA
S11304A0B1048823D1F360E072E0C8010E94B9046A
S11304B0682F70E0C8010E94A803EFCF85E593E59B
S11304C0A2E4B3E580937D0390937E03A0937F031E
S11304D0B093800308950F931F93809162039091CA
S11304E06303A0916403B0916503809381039093A7
S11304F08203A0938303B093840310925B0310924E
S11305005A03109285031092860310928703109267
S113051088031092890381E080935D03E0916D0369
S11305208E2F90E08B32910550F010925703109269
S1130530560381E0809389031F910F910895FC0174
S1130540EA5AFF4F0C944C0610925D0381E08093AD
S11305505C0310925703109256038091740390E049
S1130560982F882720917503820F911D9093510332
S11305708093500380916F0390E0A0E0B0E0382FA7
S11305802227112700274091700350E060E070E0BB
S1130590DA0199278827800F911FA21FB31F20918A
S11305A07203820F911DA11DB11D2091710330E0D2
S11305B0322F2227820F931FA11DB11D19E0880F2E
S11305C0991FAA1FBB1F1A95D1F7809352039093CA
S11305D05303A0935403B09355031F910F910895AF
S11305E010925703109256031F910F91089582E1C0
S11305F0E4E2F1E0A0E5B1E001900D928A95E1F723
S113060082E190E090935703809356031F910F91DA
S1130610089584E2E0E0F1E0A0E5B1E001900D92FC
S11306208A95E1F784E290E0909357038093560310
S11306301F910F9108958091360190913701A091F7
S11306403801B09139018093500190935101A093E6
S11306505201B093530184E090E090935703809348
S113066056031F910F9108958CE0E2E4F1E0A0E5B8
S1130670B1E001900D928A95E1F78CE090E09093BF
S11306805703809356031F910F91089588E0EAE37E
S1130690F1E0A0E5B1E001900D928A95E1F788E0E0
S11306A090E090935703809356031F910F91089500
S11306B080E092E090935703809356032091740353
S11306C030E0322F22278091750390E00197280FA4
S11306D0391F309351032093500360916F03862F89
S11306E090E0A0E0B0E0B82FAA279927882740918E
S11306F0700350E060E070E0BA0155274427840F8E
S1130700951FA61FB71F40917203840F911DA11D51
S1130710B11D4091710350E0542F4427840F951F5D
S1130720A11DB11DBC01CD01A9E0660F771F881F73
S1130730991FAA95D1F76093520370935303809342
S1130740540390935503C9011F910F910C94DA013E
S11307500F931F93CF93DF939C01EB0190915C0364
S1130760992339F09130F1F0DF91CF911F910F91DE
S1130770089500915A0310915B03AB01B901C801BC
S1130780825A9C4F0E945206C00FD11FD0935B0324
S1130790C0935A036F9741F7DF91CF911F910F9147
S11307A00C946B0200915A0310915B03AB01B901E5
S11307B0C801805B9E4F0E945206C00FD11FC11515
S11307C082E0D80749F0D0935B03C0935A03DF91CA
S11307D0CF911F910F91089510925B0310925A03C9
S11307E0609152037091530380E591E00E94DD0112
S11307F08091520390915303A0915403B0915503F7
S11308009E5FAF4FBF4F8093520390935303A093C7
S11308105403B09355038091500390915103019771
S11308209093510380935003892B09F09DCF10922C
S11308305C0382E080935D0397CF80915D038130F8
S113084019F0823019F10895809158039091590359
S11308502091560330915703281B390B2032310560
S113086008F044C040915003509151034115510583
S1130870B1F421114DC010925703109256031092F7
S113088059031092580382E080935D036DE070E099
S11308908DE793E00E948F0410925D0308951092F7
S11308A05903109258038091520390915303A091DD
S11308B05403B0915503BC01CD017E5F8F4F9F4F10
S11308C0609352037093530380935403909355039E
S11308D041505109509351034093500380E591E0F6
S11308E00E94DA01809158039091590360E270E00C
S11308F0805B9E4F0E948F0480915803909159030E
S11309008096909359038093580380915D0399CF07
S1130910B9017727805B9E4F0E948F04ACCF209152
S11309208A03211102C08FEF0895F89421E02093E7
S1130930E9002091E80025FFFCCF6115710551F015
S1130940FC019C01260F371F91919093F100E2174F
S1130950F307D1F78AE38093E800789481E0860F67
S11309600895F89482E08093E9008091F2007894ED
S11309700895FC0180918A03811102C08FEF0895CC
S1130980F89482E08093E9008091E80085FFFCCF31
S11309902091F20030E062177307B8F02115310599
S11309A051F0AF01420F531F9091F10090833196A3
S11309B0E417F507C9F78091F200811103C08BE6B3
S11309C08093E8007894822F08959B01E7CFF894F0
S11309D08091D70081608093D70089B5826189BDF9
S11309E009B400FEFDCF8091D80080698093D800BF
S11309F08091D8008F7D8093D8001092E000809180
S1130A00D8008E7F8093D8008091E2008C60809320
S1130A10E20010928A03789480E090E00895809137
S1130A208A0308951F920F920FB60F9211248F9389
S1130A309F938091E1001092E10083FF12C0109215
S1130A40E90091E09093EB001092EC008091ED00AE
S1130A5082628093ED0010928A038091EE0087FDFC
S1130A6007C09F918F910F900FBE0F901F90189504
S1130A709093EA001092EA0088E08093F0009F913E
S1130A808F910F900FBE0F901F9018951F920F9289
S1130A900FB60F9211242F933F934F935F936F934D
S1130AA07F938F939F93AF93BF93EF93FF93109292
S1130AB0E9008091E80083FF36C05091F100409135
S1130AC0F1008091F1002091F10090E0BC01722BC3
S1130AD09B018091F1008091F1008091F10060917F
S1130AE0F1009091E800927F9093E800463089F1FC
S1130AF0493009F479C0453009F468C0483081F0C0
S1130B004111BBC08091E80080FFFCCF1092F1003E
S1130B101092F1008091E8008E7F8093E80008C075
S1130B20503809F496C08091EB0081628093EB0009
S1130B30FF91EF91BF91AF919F918F917F916F91B1
S1130B405F914F913F912F910F900FBE0F901F9087
S1130B501895211571E0370709F489C02115324031
S1130B6011F7E0E242E051E090E0962B8F3F9105CF
S1130B7019F010F08FEF90E0982FE81708F49E2FEB
S1130B809923B1F28091E80080FFFCCF8091E800C6
S1130B9082FDCECF692F913208F060E2FA01A62FD0
S1130BA0B0E09A012A0F3B1F84918093F1003196A3
S1130BB02E173F07C9F7961B4A0F5B1F8091E80069
S1130BC08E7F8093E8009111DDCFB2CF8091E80051
S1130BD08E7F8093E8008091E80080FFFCCF822F15
S1130BE080688093E300A4CF51119DCF20938A03A2
S1130BF08091E8008E7F8093E80081E08093E90093
S1130C008091EB0081608093EB0081E88093EC009D
S1130C1082E38093ED008091EE0087FF10928A03B7
S1130C2082E08093E9008091EB0081608093EB0087
S1130C3080E88093EC0082E38093ED008091EE00E5
S1130C4087FF10928A038EE18093EA001092EA00F3
S1130C506FCF8091E80080FFFCCF80918A0380935E
S1130C60F1008091E8008E7F8093E80061CFE2E29A
S1130C70F1E0E49142E251E077CF4E3F09F053CFE7
S1130C808091E80080FFFCCF1092F1008091E80091
S1130C908E7F8093E8004CCFEE0FFF1F0590F491F8
S1130CA0E02D0994FB01DC0102C001900D9241503A
S10D0CB05040D8F70895F894FFCFE0
S1130CBA008002021F00000041546D6567612038FC
S1130CCA562D5553422053442D4164617074657204
S1130CDA30303030700005000000000A00000000C7
S1130CEA24000000000003000000000F237F00001E
S1110CFA02000000000800F2380002000200B0
S9030000FC
